{
  "_format": "hh-sol-artifact-1",
  "contractName": "Y2123",
  "sourceName": "contracts/Y2123.sol",
  "abi": [
    {
      "inputs": [
        {
          "internalType": "string",
          "name": "uri",
          "type": "string"
        },
        {
          "internalType": "bytes32",
          "name": "root1",
          "type": "bytes32"
        },
        {
          "internalType": "bytes32",
          "name": "root2",
          "type": "bytes32"
        }
      ],
      "stateMutability": "nonpayable",
      "type": "constructor"
    },
    {
      "anonymous": false,
      "inputs": [
        {
          "indexed": true,
          "internalType": "address",
          "name": "owner",
          "type": "address"
        },
        {
          "indexed": true,
          "internalType": "address",
          "name": "approved",
          "type": "address"
        },
        {
          "indexed": true,
          "internalType": "uint256",
          "name": "tokenId",
          "type": "uint256"
        }
      ],
      "name": "Approval",
      "type": "event"
    },
    {
      "anonymous": false,
      "inputs": [
        {
          "indexed": true,
          "internalType": "address",
          "name": "owner",
          "type": "address"
        },
        {
          "indexed": true,
          "internalType": "address",
          "name": "operator",
          "type": "address"
        },
        {
          "indexed": false,
          "internalType": "bool",
          "name": "approved",
          "type": "bool"
        }
      ],
      "name": "ApprovalForAll",
      "type": "event"
    },
    {
      "anonymous": false,
      "inputs": [
        {
          "indexed": true,
          "internalType": "uint256",
          "name": "id",
          "type": "uint256"
        }
      ],
      "name": "Burned",
      "type": "event"
    },
    {
      "anonymous": false,
      "inputs": [
        {
          "indexed": true,
          "internalType": "uint256",
          "name": "id",
          "type": "uint256"
        }
      ],
      "name": "Minted",
      "type": "event"
    },
    {
      "anonymous": false,
      "inputs": [
        {
          "indexed": true,
          "internalType": "address",
          "name": "addr",
          "type": "address"
        },
        {
          "indexed": true,
          "internalType": "uint256",
          "name": "id",
          "type": "uint256"
        }
      ],
      "name": "MintedNonTxOrigin",
      "type": "event"
    },
    {
      "anonymous": false,
      "inputs": [
        {
          "indexed": true,
          "internalType": "address",
          "name": "previousOwner",
          "type": "address"
        },
        {
          "indexed": true,
          "internalType": "address",
          "name": "newOwner",
          "type": "address"
        }
      ],
      "name": "OwnershipTransferred",
      "type": "event"
    },
    {
      "anonymous": false,
      "inputs": [
        {
          "indexed": false,
          "internalType": "address",
          "name": "account",
          "type": "address"
        }
      ],
      "name": "Paused",
      "type": "event"
    },
    {
      "anonymous": false,
      "inputs": [
        {
          "indexed": false,
          "internalType": "bool",
          "name": "active",
          "type": "bool"
        }
      ],
      "name": "PresaleActive",
      "type": "event"
    },
    {
      "anonymous": false,
      "inputs": [
        {
          "indexed": false,
          "internalType": "bool",
          "name": "active",
          "type": "bool"
        }
      ],
      "name": "SaleActive",
      "type": "event"
    },
    {
      "anonymous": false,
      "inputs": [
        {
          "indexed": true,
          "internalType": "address",
          "name": "from",
          "type": "address"
        },
        {
          "indexed": true,
          "internalType": "address",
          "name": "to",
          "type": "address"
        },
        {
          "indexed": true,
          "internalType": "uint256",
          "name": "tokenId",
          "type": "uint256"
        }
      ],
      "name": "Transfer",
      "type": "event"
    },
    {
      "anonymous": false,
      "inputs": [
        {
          "indexed": false,
          "internalType": "address",
          "name": "account",
          "type": "address"
        }
      ],
      "name": "Unpaused",
      "type": "event"
    },
    {
      "inputs": [],
      "name": "MAX_FREE_MINT",
      "outputs": [
        {
          "internalType": "uint256",
          "name": "",
          "type": "uint256"
        }
      ],
      "stateMutability": "view",
      "type": "function"
    },
    {
      "inputs": [],
      "name": "MAX_RESERVE_MINT",
      "outputs": [
        {
          "internalType": "uint256",
          "name": "",
          "type": "uint256"
        }
      ],
      "stateMutability": "view",
      "type": "function"
    },
    {
      "inputs": [],
      "name": "MAX_SUPPLY",
      "outputs": [
        {
          "internalType": "uint256",
          "name": "",
          "type": "uint256"
        }
      ],
      "stateMutability": "view",
      "type": "function"
    },
    {
      "inputs": [],
      "name": "MAX_SUPPLY_GENESIS",
      "outputs": [
        {
          "internalType": "uint256",
          "name": "",
          "type": "uint256"
        }
      ],
      "stateMutability": "view",
      "type": "function"
    },
    {
      "inputs": [
        {
          "internalType": "address",
          "name": "addr",
          "type": "address"
        }
      ],
      "name": "addAdmin",
      "outputs": [],
      "stateMutability": "nonpayable",
      "type": "function"
    },
    {
      "inputs": [
        {
          "internalType": "address",
          "name": "",
          "type": "address"
        }
      ],
      "name": "addressMinted",
      "outputs": [
        {
          "internalType": "uint256",
          "name": "",
          "type": "uint256"
        }
      ],
      "stateMutability": "view",
      "type": "function"
    },
    {
      "inputs": [
        {
          "internalType": "address[]",
          "name": "recipient",
          "type": "address[]"
        },
        {
          "internalType": "uint256[]",
          "name": "quantity",
          "type": "uint256[]"
        }
      ],
      "name": "airDrop",
      "outputs": [],
      "stateMutability": "nonpayable",
      "type": "function"
    },
    {
      "inputs": [
        {
          "internalType": "address",
          "name": "to",
          "type": "address"
        },
        {
          "internalType": "uint256",
          "name": "tokenId",
          "type": "uint256"
        }
      ],
      "name": "approve",
      "outputs": [],
      "stateMutability": "nonpayable",
      "type": "function"
    },
    {
      "inputs": [
        {
          "internalType": "address",
          "name": "owner",
          "type": "address"
        }
      ],
      "name": "balanceOf",
      "outputs": [
        {
          "internalType": "uint256",
          "name": "",
          "type": "uint256"
        }
      ],
      "stateMutability": "view",
      "type": "function"
    },
    {
      "inputs": [
        {
          "internalType": "uint256",
          "name": "tokenId",
          "type": "uint256"
        }
      ],
      "name": "burn",
      "outputs": [],
      "stateMutability": "nonpayable",
      "type": "function"
    },
    {
      "inputs": [
        {
          "internalType": "bytes32[]",
          "name": "proof",
          "type": "bytes32[]"
        }
      ],
      "name": "freeMint",
      "outputs": [],
      "stateMutability": "payable",
      "type": "function"
    },
    {
      "inputs": [],
      "name": "freeMintCount",
      "outputs": [
        {
          "internalType": "uint256",
          "name": "",
          "type": "uint256"
        }
      ],
      "stateMutability": "view",
      "type": "function"
    },
    {
      "inputs": [],
      "name": "freeMintEnabled",
      "outputs": [
        {
          "internalType": "bool",
          "name": "",
          "type": "bool"
        }
      ],
      "stateMutability": "view",
      "type": "function"
    },
    {
      "inputs": [
        {
          "internalType": "address",
          "name": "",
          "type": "address"
        }
      ],
      "name": "freeMintMinted",
      "outputs": [
        {
          "internalType": "uint256",
          "name": "",
          "type": "uint256"
        }
      ],
      "stateMutability": "view",
      "type": "function"
    },
    {
      "inputs": [],
      "name": "freeMintUnclaimed",
      "outputs": [
        {
          "internalType": "uint256",
          "name": "",
          "type": "uint256"
        }
      ],
      "stateMutability": "view",
      "type": "function"
    },
    {
      "inputs": [
        {
          "internalType": "address",
          "name": "addr",
          "type": "address"
        }
      ],
      "name": "getAddressWriteBlock",
      "outputs": [
        {
          "internalType": "uint64",
          "name": "",
          "type": "uint64"
        }
      ],
      "stateMutability": "view",
      "type": "function"
    },
    {
      "inputs": [
        {
          "internalType": "uint256",
          "name": "tokenId",
          "type": "uint256"
        }
      ],
      "name": "getApproved",
      "outputs": [
        {
          "internalType": "address",
          "name": "",
          "type": "address"
        }
      ],
      "stateMutability": "view",
      "type": "function"
    },
    {
      "inputs": [
        {
          "internalType": "address",
          "name": "addr",
          "type": "address"
        }
      ],
      "name": "getTokenIDs",
      "outputs": [
        {
          "internalType": "uint256[]",
          "name": "",
          "type": "uint256[]"
        }
      ],
      "stateMutability": "view",
      "type": "function"
    },
    {
      "inputs": [
        {
          "internalType": "uint256",
          "name": "tokenId",
          "type": "uint256"
        }
      ],
      "name": "getTokenWriteBlock",
      "outputs": [
        {
          "internalType": "uint64",
          "name": "",
          "type": "uint64"
        }
      ],
      "stateMutability": "view",
      "type": "function"
    },
    {
      "inputs": [
        {
          "internalType": "address",
          "name": "owner",
          "type": "address"
        },
        {
          "internalType": "address",
          "name": "operator",
          "type": "address"
        }
      ],
      "name": "isApprovedForAll",
      "outputs": [
        {
          "internalType": "bool",
          "name": "",
          "type": "bool"
        }
      ],
      "stateMutability": "view",
      "type": "function"
    },
    {
      "inputs": [],
      "name": "maxMintPerAddress",
      "outputs": [
        {
          "internalType": "uint256",
          "name": "",
          "type": "uint256"
        }
      ],
      "stateMutability": "view",
      "type": "function"
    },
    {
      "inputs": [],
      "name": "maxMintPerTx",
      "outputs": [
        {
          "internalType": "uint256",
          "name": "",
          "type": "uint256"
        }
      ],
      "stateMutability": "view",
      "type": "function"
    },
    {
      "inputs": [
        {
          "internalType": "address",
          "name": "recipient",
          "type": "address"
        }
      ],
      "name": "mint",
      "outputs": [],
      "stateMutability": "nonpayable",
      "type": "function"
    },
    {
      "inputs": [],
      "name": "mintPrice",
      "outputs": [
        {
          "internalType": "uint256",
          "name": "",
          "type": "uint256"
        }
      ],
      "stateMutability": "view",
      "type": "function"
    },
    {
      "inputs": [],
      "name": "name",
      "outputs": [
        {
          "internalType": "string",
          "name": "",
          "type": "string"
        }
      ],
      "stateMutability": "view",
      "type": "function"
    },
    {
      "inputs": [],
      "name": "owner",
      "outputs": [
        {
          "internalType": "address",
          "name": "",
          "type": "address"
        }
      ],
      "stateMutability": "view",
      "type": "function"
    },
    {
      "inputs": [
        {
          "internalType": "uint256",
          "name": "tokenId",
          "type": "uint256"
        }
      ],
      "name": "ownerOf",
      "outputs": [
        {
          "internalType": "address",
          "name": "",
          "type": "address"
        }
      ],
      "stateMutability": "view",
      "type": "function"
    },
    {
      "inputs": [
        {
          "internalType": "uint256",
          "name": "amount",
          "type": "uint256"
        },
        {
          "internalType": "bytes32[]",
          "name": "proof",
          "type": "bytes32[]"
        }
      ],
      "name": "paidMint",
      "outputs": [],
      "stateMutability": "payable",
      "type": "function"
    },
    {
      "inputs": [],
      "name": "paused",
      "outputs": [
        {
          "internalType": "bool",
          "name": "",
          "type": "bool"
        }
      ],
      "stateMutability": "view",
      "type": "function"
    },
    {
      "inputs": [],
      "name": "presaleEnabled",
      "outputs": [
        {
          "internalType": "bool",
          "name": "",
          "type": "bool"
        }
      ],
      "stateMutability": "view",
      "type": "function"
    },
    {
      "inputs": [
        {
          "internalType": "address",
          "name": "addr",
          "type": "address"
        }
      ],
      "name": "removeAdmin",
      "outputs": [],
      "stateMutability": "nonpayable",
      "type": "function"
    },
    {
      "inputs": [],
      "name": "renounceOwnership",
      "outputs": [],
      "stateMutability": "nonpayable",
      "type": "function"
    },
    {
      "inputs": [
        {
          "internalType": "uint256",
          "name": "amount",
          "type": "uint256"
        }
      ],
      "name": "reserve",
      "outputs": [],
      "stateMutability": "nonpayable",
      "type": "function"
    },
    {
      "inputs": [],
      "name": "reserveMintCount",
      "outputs": [
        {
          "internalType": "uint256",
          "name": "",
          "type": "uint256"
        }
      ],
      "stateMutability": "view",
      "type": "function"
    },
    {
      "inputs": [],
      "name": "reserveMintUnclaimed",
      "outputs": [
        {
          "internalType": "uint256",
          "name": "",
          "type": "uint256"
        }
      ],
      "stateMutability": "view",
      "type": "function"
    },
    {
      "inputs": [
        {
          "internalType": "address",
          "name": "from",
          "type": "address"
        },
        {
          "internalType": "address",
          "name": "to",
          "type": "address"
        },
        {
          "internalType": "uint256",
          "name": "tokenId",
          "type": "uint256"
        }
      ],
      "name": "safeTransferFrom",
      "outputs": [],
      "stateMutability": "nonpayable",
      "type": "function"
    },
    {
      "inputs": [
        {
          "internalType": "address",
          "name": "from",
          "type": "address"
        },
        {
          "internalType": "address",
          "name": "to",
          "type": "address"
        },
        {
          "internalType": "uint256",
          "name": "tokenId",
          "type": "uint256"
        },
        {
          "internalType": "bytes",
          "name": "_data",
          "type": "bytes"
        }
      ],
      "name": "safeTransferFrom",
      "outputs": [],
      "stateMutability": "nonpayable",
      "type": "function"
    },
    {
      "inputs": [],
      "name": "saleEnabled",
      "outputs": [
        {
          "internalType": "bool",
          "name": "",
          "type": "bool"
        }
      ],
      "stateMutability": "view",
      "type": "function"
    },
    {
      "inputs": [
        {
          "internalType": "address",
          "name": "operator",
          "type": "address"
        },
        {
          "internalType": "bool",
          "name": "approved",
          "type": "bool"
        }
      ],
      "name": "setApprovalForAll",
      "outputs": [],
      "stateMutability": "nonpayable",
      "type": "function"
    },
    {
      "inputs": [
        {
          "internalType": "string",
          "name": "newBaseURI",
          "type": "string"
        }
      ],
      "name": "setBaseURI",
      "outputs": [],
      "stateMutability": "nonpayable",
      "type": "function"
    },
    {
      "inputs": [
        {
          "internalType": "bytes32",
          "name": "root",
          "type": "bytes32"
        }
      ],
      "name": "setFreeRoot",
      "outputs": [],
      "stateMutability": "nonpayable",
      "type": "function"
    },
    {
      "inputs": [
        {
          "internalType": "uint256",
          "name": "newMaxFreeMint",
          "type": "uint256"
        }
      ],
      "name": "setMaxFreeMint",
      "outputs": [],
      "stateMutability": "nonpayable",
      "type": "function"
    },
    {
      "inputs": [
        {
          "internalType": "uint256",
          "name": "newMaxMintPerAddress",
          "type": "uint256"
        }
      ],
      "name": "setMaxMintPerAddress",
      "outputs": [],
      "stateMutability": "nonpayable",
      "type": "function"
    },
    {
      "inputs": [
        {
          "internalType": "uint256",
          "name": "newMaxMintPerTx",
          "type": "uint256"
        }
      ],
      "name": "setMaxMintPerTx",
      "outputs": [],
      "stateMutability": "nonpayable",
      "type": "function"
    },
    {
      "inputs": [
        {
          "internalType": "uint256",
          "name": "newMaxReserveMint",
          "type": "uint256"
        }
      ],
      "name": "setMaxReserveMint",
      "outputs": [],
      "stateMutability": "nonpayable",
      "type": "function"
    },
    {
      "inputs": [
        {
          "internalType": "uint256",
          "name": "newMaxSupply",
          "type": "uint256"
        }
      ],
      "name": "setMaxSupply",
      "outputs": [],
      "stateMutability": "nonpayable",
      "type": "function"
    },
    {
      "inputs": [
        {
          "internalType": "bytes32",
          "name": "root",
          "type": "bytes32"
        }
      ],
      "name": "setMerkleRoot",
      "outputs": [],
      "stateMutability": "nonpayable",
      "type": "function"
    },
    {
      "inputs": [
        {
          "internalType": "uint256",
          "name": "newPrice",
          "type": "uint256"
        }
      ],
      "name": "setMintPrice",
      "outputs": [],
      "stateMutability": "nonpayable",
      "type": "function"
    },
    {
      "inputs": [
        {
          "internalType": "bool",
          "name": "_paused",
          "type": "bool"
        }
      ],
      "name": "setPaused",
      "outputs": [],
      "stateMutability": "nonpayable",
      "type": "function"
    },
    {
      "inputs": [
        {
          "internalType": "bytes4",
          "name": "interfaceId",
          "type": "bytes4"
        }
      ],
      "name": "supportsInterface",
      "outputs": [
        {
          "internalType": "bool",
          "name": "",
          "type": "bool"
        }
      ],
      "stateMutability": "view",
      "type": "function"
    },
    {
      "inputs": [],
      "name": "symbol",
      "outputs": [
        {
          "internalType": "string",
          "name": "",
          "type": "string"
        }
      ],
      "stateMutability": "view",
      "type": "function"
    },
    {
      "inputs": [],
      "name": "toggleFreeMint",
      "outputs": [],
      "stateMutability": "nonpayable",
      "type": "function"
    },
    {
      "inputs": [],
      "name": "togglePresale",
      "outputs": [],
      "stateMutability": "nonpayable",
      "type": "function"
    },
    {
      "inputs": [],
      "name": "toggleSale",
      "outputs": [],
      "stateMutability": "nonpayable",
      "type": "function"
    },
    {
      "inputs": [
        {
          "internalType": "uint256",
          "name": "index",
          "type": "uint256"
        }
      ],
      "name": "tokenByIndex",
      "outputs": [
        {
          "internalType": "uint256",
          "name": "",
          "type": "uint256"
        }
      ],
      "stateMutability": "view",
      "type": "function"
    },
    {
      "inputs": [
        {
          "internalType": "address",
          "name": "owner",
          "type": "address"
        },
        {
          "internalType": "uint256",
          "name": "index",
          "type": "uint256"
        }
      ],
      "name": "tokenOfOwnerByIndex",
      "outputs": [
        {
          "internalType": "uint256",
          "name": "",
          "type": "uint256"
        }
      ],
      "stateMutability": "view",
      "type": "function"
    },
    {
      "inputs": [
        {
          "internalType": "uint256",
          "name": "tokenId",
          "type": "uint256"
        }
      ],
      "name": "tokenURI",
      "outputs": [
        {
          "internalType": "string",
          "name": "",
          "type": "string"
        }
      ],
      "stateMutability": "view",
      "type": "function"
    },
    {
      "inputs": [],
      "name": "totalSupply",
      "outputs": [
        {
          "internalType": "uint256",
          "name": "",
          "type": "uint256"
        }
      ],
      "stateMutability": "view",
      "type": "function"
    },
    {
      "inputs": [
        {
          "internalType": "address",
          "name": "from",
          "type": "address"
        },
        {
          "internalType": "address",
          "name": "to",
          "type": "address"
        },
        {
          "internalType": "uint256",
          "name": "tokenId",
          "type": "uint256"
        }
      ],
      "name": "transferFrom",
      "outputs": [],
      "stateMutability": "nonpayable",
      "type": "function"
    },
    {
      "inputs": [
        {
          "internalType": "address",
          "name": "newOwner",
          "type": "address"
        }
      ],
      "name": "transferOwnership",
      "outputs": [],
      "stateMutability": "nonpayable",
      "type": "function"
    },
    {
      "inputs": [
        {
          "internalType": "uint256[]",
          "name": "tokenIds",
          "type": "uint256[]"
        }
      ],
      "name": "updateOriginAccess",
      "outputs": [],
      "stateMutability": "nonpayable",
      "type": "function"
    },
    {
      "inputs": [
        {
          "internalType": "address",
          "name": "",
          "type": "address"
        }
      ],
      "name": "whitelistMinted",
      "outputs": [
        {
          "internalType": "uint256",
          "name": "",
          "type": "uint256"
        }
      ],
      "stateMutability": "view",
      "type": "function"
    },
    {
      "inputs": [],
      "name": "withdrawAll",
      "outputs": [],
      "stateMutability": "nonpayable",
      "type": "function"
    }
  ],
  "bytecode": "0x60806040526101f460115560326012819055601381905566dfd22a8cd980006015556003601655600160178190556018805462ffffff1916909117905560006019819055601a8190556200005391620003ae565b601b55601a54601354620000689190620003ae565b601c553480156200007857600080fd5b5060405162004955380380620049558339810160408190526200009b91620003ea565b604080518082018252600580825264593231323360d81b602080840182815285518087019096529285528401528151919291620000db9160009162000308565b508051620000f190600190602084019062000308565b5050506200010e620001086200015f60201b60201c565b62000163565b600a805460ff60a01b191690556001600b556200012a620001b5565b82516200013f90601490602086019062000308565b506200014b8262000268565b6200015681620002b8565b50505062000517565b3390565b600a80546001600160a01b038381166001600160a01b0319831681179093556040519116919082907f8be0079c531659141344cd1fd0a4f28419497f9722a3daafe3b4186f6b6457e090600090a35050565b620001c9600a54600160a01b900460ff1690565b156200020f5760405162461bcd60e51b815260206004820152601060248201526f14185d5cd8589b194e881c185d5cd95960821b60448201526064015b60405180910390fd5b600a805460ff60a01b1916600160a01b1790557f62e78cea01bee320cd4e420270b5ea74000d11b0c9f74754ebdbfc544b05a2586200024b3390565b6040516001600160a01b03909116815260200160405180910390a1565b600a546001600160a01b03163314620002b35760405162461bcd60e51b8152602060048201819052602482015260008051602062004935833981519152604482015260640162000206565b600f55565b600a546001600160a01b03163314620003035760405162461bcd60e51b8152602060048201819052602482015260008051602062004935833981519152604482015260640162000206565b601055565b8280546200031690620004da565b90600052602060002090601f0160209004810192826200033a576000855562000385565b82601f106200035557805160ff191683800117855562000385565b8280016001018555821562000385579182015b828111156200038557825182559160200191906001019062000368565b506200039392915062000397565b5090565b5b8082111562000393576000815560010162000398565b600082821015620003cf57634e487b7160e01b600052601160045260246000fd5b500390565b634e487b7160e01b600052604160045260246000fd5b6000806000606084860312156200040057600080fd5b83516001600160401b03808211156200041857600080fd5b818601915086601f8301126200042d57600080fd5b815181811115620004425762000442620003d4565b604051601f8201601f19908116603f011681019083821181831017156200046d576200046d620003d4565b816040528281526020935089848487010111156200048a57600080fd5b600091505b82821015620004ae57848201840151818301850152908301906200048f565b82821115620004c05760008484830101525b928801516040909801519299979850919695505050505050565b600181811c90821680620004ef57607f821691505b602082108114156200051157634e487b7160e01b600052602260045260246000fd5b50919050565b61440e80620005276000396000f3fe6080604052600436106103b85760003560e01c806370480275116101f2578063a88b4d6b1161010d578063dce36acd116100a0578063ebd173681161006f578063ebd1736814610abc578063f2fde38b14610adc578063f4a0a52814610afc578063fa30297e14610b1c57600080fd5b8063dce36acd14610a50578063de7fcb1d14610a70578063e55f58bb14610a86578063e985e9c514610a9c57600080fd5b8063b88d4fde116100dc578063b88d4fde146109ab578063c87b56dd146109cb578063d749b71c146109eb578063d7a3374814610a1857600080fd5b8063a88b4d6b1461094c578063a9bd94d41461095f578063ac99251114610975578063b3105e381461099557600080fd5b8063806c440d116101855780638da5cb5b116101545780638da5cb5b146108cc57806395d89b41146108ea57806398a8cffe146108ff578063a22cb4651461092c57600080fd5b8063806c440d14610857578063819b25ba14610884578063853828b6146108a457806388d15d50146108b957600080fd5b806372c0fa54116101c157806372c0fa54146107ed578063742a4c9b146108025780637cb64759146108225780637d8966e41461084257600080fd5b8063704802751461077957806370a0823114610799578063715018a6146107b957806371b9b646146107ce57600080fd5b806334393743116102e25780635c975abb1161027557806365216a411161024457806365216a41146107035780636817c76c146107235780636a627842146107395780636f8b44b01461075957600080fd5b80635c975abb14610684578063616cdb1e146106a357806362ad68aa146106c35780636352211e146106e357600080fd5b80634f6ccce7116102b15780634f6ccce71461061857806355f804b314610638578063572849c4146106585780635c3730f21461066e57600080fd5b806334393743146105ad57806341cda203146105c257806342842e0e146105d857806342966c68146105f857600080fd5b806316c38b3c1161035a57806323b872dd1161032957806323b872dd146105415780632a41aa07146105615780632f745c591461057757806332cb6b0c1461059757600080fd5b806316c38b3c146104cc5780631785f53c146104ec57806318160ddd1461050c5780631e14d44b1461052157600080fd5b8063095ea7b311610396578063095ea7b31461044c5780630c142a431461046e57806310a44f8914610492578063143b237f146104b257600080fd5b806301ffc9a7146103bd57806306fdde03146103f2578063081812fc14610414575b600080fd5b3480156103c957600080fd5b506103dd6103d8366004613b1f565b610b49565b60405190151581526020015b60405180910390f35b3480156103fe57600080fd5b50610407610b74565b6040516103e99190613b94565b34801561042057600080fd5b5061043461042f366004613ba7565b610c06565b6040516001600160a01b0390911681526020016103e9565b34801561045857600080fd5b5061046c610467366004613bd7565b610c7b565b005b34801561047a57600080fd5b506104846101f481565b6040519081526020016103e9565b34801561049e57600080fd5b5061046c6104ad366004613ba7565b610ce4565b3480156104be57600080fd5b506018546103dd9060ff1681565b3480156104d857600080fd5b5061046c6104e7366004613c11565b610d13565b3480156104f857600080fd5b5061046c610507366004613c2c565b610d56565b34801561051857600080fd5b50600854610484565b34801561052d57600080fd5b5061046c61053c366004613ba7565b610de7565b34801561054d57600080fd5b5061046c61055c366004613c47565b610e5b565b34801561056d57600080fd5b50610484601b5481565b34801561058357600080fd5b50610484610592366004613bd7565b610f04565b3480156105a357600080fd5b5061048460115481565b3480156105b957600080fd5b5061046c61102d565b3480156105ce57600080fd5b5061048460135481565b3480156105e457600080fd5b5061046c6105f3366004613c47565b6110a5565b34801561060457600080fd5b5061046c610613366004613ba7565b61110a565b34801561062457600080fd5b50610484610633366004613ba7565b6111f7565b34801561064457600080fd5b5061046c610653366004613d20565b61125e565b34801561066457600080fd5b5061048460175481565b34801561067a57600080fd5b5061048460195481565b34801561069057600080fd5b50600a54600160a01b900460ff166103dd565b3480156106af57600080fd5b5061046c6106be366004613ba7565b61129f565b3480156106cf57600080fd5b506018546103dd9062010000900460ff1681565b3480156106ef57600080fd5b506104346106fe366004613ba7565b611313565b34801561070f57600080fd5b5061046c61071e366004613db3565b611436565b34801561072f57600080fd5b5061048460155481565b34801561074557600080fd5b5061046c610754366004613c2c565b61166e565b34801561076557600080fd5b5061046c610774366004613ba7565b6117df565b34801561078557600080fd5b5061046c610794366004613c2c565b6118dc565b3480156107a557600080fd5b506104846107b4366004613c2c565b611970565b3480156107c557600080fd5b5061046c611a39565b3480156107da57600080fd5b506018546103dd90610100900460ff1681565b3480156107f957600080fd5b5061046c611a6f565b34801561080e57600080fd5b5061046c61081d366004613ba7565b611ab8565b34801561082e57600080fd5b5061046c61083d366004613ba7565b611b42565b34801561084e57600080fd5b5061046c611b71565b34801561086357600080fd5b50610877610872366004613c2c565b611bf3565b6040516103e99190613e1e565b34801561089057600080fd5b5061046c61089f366004613ba7565b611c94565b3480156108b057600080fd5b5061046c611d93565b61046c6108c7366004613ef0565b611de1565b3480156108d857600080fd5b50600a546001600160a01b0316610434565b3480156108f657600080fd5b5061040761204a565b34801561090b57600080fd5b5061048461091a366004613c2c565b601e6020526000908152604090205481565b34801561093857600080fd5b5061046c610947366004613f24565b612059565b61046c61095a366004613f57565b6120bc565b34801561096b57600080fd5b5061048460125481565b34801561098157600080fd5b5061046c610990366004613ba7565b61245f565b3480156109a157600080fd5b50610484601c5481565b3480156109b757600080fd5b5061046c6109c6366004613f9d565b6124e9565b3480156109d757600080fd5b506104076109e6366004613ba7565b612556565b3480156109f757600080fd5b50610484610a06366004613c2c565b601d6020526000908152604090205481565b348015610a2457600080fd5b50610a38610a33366004613c2c565b612630565b6040516001600160401b0390911681526020016103e9565b348015610a5c57600080fd5b5061046c610a6b366004614018565b61268b565b348015610a7c57600080fd5b5061048460165481565b348015610a9257600080fd5b50610484601a5481565b348015610aa857600080fd5b506103dd610ab73660046140a8565b6127ba565b348015610ac857600080fd5b50610a38610ad7366004613ba7565b612841565b348015610ae857600080fd5b5061046c610af7366004613c2c565b612893565b348015610b0857600080fd5b5061046c610b17366004613ba7565b61292b565b348015610b2857600080fd5b50610484610b37366004613c2c565b601f6020526000908152604090205481565b60006001600160e01b0319821663780e9d6360e01b1480610b6e5750610b6e8261295a565b92915050565b606060008054610b83906140d2565b80601f0160208091040260200160405190810160405280929190818152602001828054610baf906140d2565b8015610bfc5780601f10610bd157610100808354040283529160200191610bfc565b820191906000526020600020905b815481529060010190602001808311610bdf57829003601f168201915b5050505050905090565b336000908152600e6020526040812054829060ff1680610c4457506000818152600d602052604090205443600160401b9091046001600160401b0316105b610c695760405162461bcd60e51b8152600401610c6090614107565b60405180910390fd5b610c72836129aa565b91505b50919050565b336000908152600e6020526040902054819060ff1680610cb957506000818152600d602052604090205443600160401b9091046001600160401b0316105b610cd55760405162461bcd60e51b8152600401610c6090614107565b610cdf8383612a3f565b505050565b600a546001600160a01b03163314610d0e5760405162461bcd60e51b8152600401610c609061413e565b601055565b600a546001600160a01b03163314610d3d5760405162461bcd60e51b8152600401610c609061413e565b8015610d4e57610d4b612b50565b50565b610d4b612bcd565b600a546001600160a01b03163314610d805760405162461bcd60e51b8152600401610c609061413e565b6001600160a01b038116610dc65760405162461bcd60e51b815260206004820152600d60248201526c656d707479206164647265737360981b6044820152606401610c60565b6001600160a01b03166000908152600e60205260409020805460ff19169055565b600a546001600160a01b03163314610e115760405162461bcd60e51b8152600401610c609061413e565b60008111610e565760405162461bcd60e51b815260206004820152601260248201527156616c7565206c6f776572207468656e203160701b6044820152606401610c60565b601755565b336000908152600e6020526040902054819060ff1680610e9957506000818152600d602052604090205443600160401b9091046001600160401b0316105b610eb55760405162461bcd60e51b8152600401610c6090614107565b336000908152600e602052604090205460ff16610ef357610ed7335b83612c51565b610ef35760405162461bcd60e51b8152600401610c6090614173565b610efe848484612d28565b50505050565b336000908152600e602052604081205460ff1680610f415750326000908152600c602052604090205443600160401b9091046001600160401b0316105b610f5d5760405162461bcd60e51b8152600401610c6090614107565b336000908152600e602052604090205460ff1680610fa357506001600160a01b0383166000908152600c602052604090205443600160401b9091046001600160401b0316105b610fbf5760405162461bcd60e51b8152600401610c6090614107565b6000610fcb8484612ed3565b336000908152600e602052604090205490915060ff168061100a57506000818152600d602052604090205443600160401b9091046001600160401b0316105b6110265760405162461bcd60e51b8152600401610c6090614107565b9392505050565b600a546001600160a01b031633146110575760405162461bcd60e51b8152600401610c609061413e565b6018805460ff8082161560ff1990921682179092556040519116151581527f0c56c7e2f62fe49aadfdce1fa53a6112839d06c4cfb65eee8a68476b34e79ab6906020015b60405180910390a1565b336000908152600e6020526040902054819060ff16806110e357506000818152600d602052604090205443600160401b9091046001600160401b0316105b6110ff5760405162461bcd60e51b8152600401610c6090614107565b610efe848484612f69565b600a54600160a01b900460ff16156111345760405162461bcd60e51b8152600401610c60906141c4565b336000908152600e602052604090205460ff166111635760405162461bcd60e51b8152600401610c60906141ee565b3261116d82611313565b6001600160a01b0316146111c35760405162461bcd60e51b815260206004820152601760248201527f4f6f707320796f7520646f6e2774206f776e20746861740000000000000000006044820152606401610c60565b60405181907fd83c63197e8e676d80ab0122beba9a9d20f3828839e9a1d6fe81d242e9cd7e6e90600090a2610d4b81612f84565b6000806112038361302b565b336000908152600e602052604090205490915060ff168061124257506000818152600d602052604090205443600160401b9091046001600160401b0316105b610b6e5760405162461bcd60e51b8152600401610c6090614107565b600a546001600160a01b031633146112885760405162461bcd60e51b8152600401610c609061413e565b805161129b906014906020840190613a70565b5050565b600a546001600160a01b031633146112c95760405162461bcd60e51b8152600401610c609061413e565b6000811161130e5760405162461bcd60e51b815260206004820152601260248201527156616c7565206c6f776572207468656e203160701b6044820152606401610c60565b601655565b336000908152600e602052604081205460ff16806113505750326000908152600c602052604090205443600160401b9091046001600160401b0316105b61136c5760405162461bcd60e51b8152600401610c6090614107565b336000908152600e6020526040902054829060ff16806113aa57506000818152600d602052604090205443600160401b9091046001600160401b0316105b6113c65760405162461bcd60e51b8152600401610c6090614107565b60006113d1846130be565b336000908152600e602052604090205490915060ff168061141a57506001600160a01b0381166000908152600c602052604090205443600160401b9091046001600160401b0316105b610c725760405162461bcd60e51b8152600401610c6090614107565b600a546001600160a01b031633146114605760405162461bcd60e51b8152600401610c609061413e565b8083146114c65760405162461bcd60e51b815260206004820152602e60248201527f506c656173652070726f7669646520657175616c207175616e7469746965732060448201526d616e6420726563697069656e747360901b6064820152608401610c60565b6000806114d260085490565b905060005b83811015611515578484828181106114f1576114f1614214565b90506020020135836115039190614240565b925061150e81614258565b90506114d7565b50601c54601b546011546115299190614273565b6115339190614273565b61153d8383614240565b111561157f5760405162461bcd60e51b81526020600482015260116024820152704e6f7420656e6f75676820737570706c7960781b6044820152606401610c60565b6000915060005b858110156116655760005b8585838181106115a3576115a3614214565b90506020020135811015611654576115ec8888848181106115c6576115c6614214565b90506020020160208101906115db9190613c2c565b846115e581614258565b9550613135565b601f600089898581811061160257611602614214565b90506020020160208101906116179190613c2c565b6001600160a01b031681526020810191909152604001600090812080549161163e83614258565b91905055508061164d90614258565b9050611591565b5061165e81614258565b9050611586565b50505050505050565b600a54600160a01b900460ff16156116985760405162461bcd60e51b8152600401610c60906141c4565b60006116a360085490565b336000908152600e602052604090205490915060ff166116d55760405162461bcd60e51b8152600401610c60906141ee565b601c54601b546011546116e89190614273565b6116f29190614273565b6116fd826001614240565b111561173f5760405162461bcd60e51b8152602060048201526011602482015270105b1b081d1bdad95b9cc81b5a5b9d1959607a1b6044820152606401610c60565b60405181907f176b02bb2d12439ff7a20b59f402cca16c76f50508b13ef3166a600eb719354a90600090a2326001600160a01b038316146117b15760405181906001600160a01b038416907fb852c81bbe49d2ee0d68cfc0de80a7c3c41f8d8e4a9031a3c9474bd84643e2d090600090a35b6117bb8282613135565b336000908152601f602052604081208054916117d683614258565b91905055505050565b600a546001600160a01b031633146118095760405162461bcd60e51b8152600401610c609061413e565b8060115414610d4b576008548110156118645760405162461bcd60e51b815260206004820152601d60248201527f56616c7565206c6f776572207468616e20746f74616c20737570706c790000006044820152606401610c60565b6013546012546118749190614240565b8110156118d75760405162461bcd60e51b815260206004820152602b60248201527f56616c7565206c6f776572207468616e20746f74616c2072657365727665202660448201526a2066726565206d696e747360a81b6064820152608401610c60565b601155565b600a546001600160a01b031633146119065760405162461bcd60e51b8152600401610c609061413e565b6001600160a01b03811661194c5760405162461bcd60e51b815260206004820152600d60248201526c656d707479206164647265737360981b6044820152606401610c60565b6001600160a01b03166000908152600e60205260409020805460ff19166001179055565b336000908152600e602052604081205460ff16806119ad5750326000908152600c602052604090205443600160401b9091046001600160401b0316105b6119c95760405162461bcd60e51b8152600401610c6090614107565b336000908152600e602052604090205460ff1680611a0f57506001600160a01b0382166000908152600c602052604090205443600160401b9091046001600160401b0316105b611a2b5760405162461bcd60e51b8152600401610c6090614107565b610b6e8261314f565b919050565b600a546001600160a01b03163314611a635760405162461bcd60e51b8152600401610c609061413e565b611a6d60006131d6565b565b600a546001600160a01b03163314611a995760405162461bcd60e51b8152600401610c609061413e565b6018805462ff0000198116620100009182900460ff1615909102179055565b600a546001600160a01b03163314611ae25760405162461bcd60e51b8152600401610c609061413e565b8060135414610d4b57601a54811015611b3d5760405162461bcd60e51b815260206004820152601c60248201527f56616c7565206c6f776572207468656e2066726565206d696e746564000000006044820152606401610c60565b601355565b600a546001600160a01b03163314611b6c5760405162461bcd60e51b8152600401610c609061413e565b600f55565b600a546001600160a01b03163314611b9b5760405162461bcd60e51b8152600401610c609061413e565b6018805460ff610100808304821615810261ff001990931692909217928390556040517fe8a4303c22d8b575a6f175ea4803f56b0a4551ac9e22153304feb0ddfd6143559361109b9390049091161515815260200190565b60606000611c0083611970565b90506000816001600160401b03811115611c1c57611c1c613c83565b604051908082528060200260200182016040528015611c45578160200160208202803683370190505b50905060005b82811015611c8c57611c5d8582610f04565b828281518110611c6f57611c6f614214565b602090810291909101015280611c8481614258565b915050611c4b565b509392505050565b600a546001600160a01b03163314611cbe5760405162461bcd60e51b8152600401610c609061413e565b6000611cc960085490565b905060125482601954611cdc9190614240565b1115611d2a5760405162461bcd60e51b815260206004820152601c60248201527f5265736572766564206d6f7265207468656e20617661696c61626c65000000006044820152606401610c60565b60005b82811015610cdf57611d4833611d438385614240565b613135565b336000908152601f60205260408120805491611d6383614258565b9190505550600160196000828254611d7b9190614240565b90915550819050611d8b81614258565b915050611d2d565b600a546001600160a01b03163314611dbd5760405162461bcd60e51b8152600401610c609061413e565b60405133904780156108fc02916000818181858888f19350505050611a6d57600080fd5b6002600b541415611e345760405162461bcd60e51b815260206004820152601f60248201527f5265656e7472616e637947756172643a207265656e7472616e742063616c6c006044820152606401610c60565b6002600b556000611e4460085490565b9050333214611e5257600080fd5b60185462010000900460ff16611ea25760405162461bcd60e51b8152602060048201526015602482015274119c9959481b5a5b9d081b9bdd08195b98589b1959605a1b6044820152606401610c60565b6010546040516bffffffffffffffffffffffff193360601b166020820152611eef91906034015b60405160208183030381529060405280519060200120846132289092919063ffffffff16565b611f3b5760405162461bcd60e51b815260206004820152601c60248201527f596f7520617265206e6f74206f6e207468652066726565206c697374000000006044820152606401610c60565b601354601a54611f4c906001614240565b1115611f8b5760405162461bcd60e51b815260206004820152600e60248201526d4e6f206d6f726520737570706c7960901b6044820152606401610c60565b336000908152601d6020526040902054600111611fea5760405162461bcd60e51b815260206004820181905260248201527f596f7520616c7265616479206d696e74656420796f75722066726565206e66746044820152606401610c60565b611ff43382613135565b336000908152601f6020526040812080549161200f83614258565b9091555050336000908152601d60205260408120600190819055601a80549192909161203c908490614240565b90915550506001600b555050565b606060018054610b83906140d2565b336000908152600e602052604090205460ff16806120965750326000908152600c602052604090205443600160401b9091046001600160401b0316105b6120b25760405162461bcd60e51b8152600401610c6090614107565b61129b828261323e565b6002600b54141561210f5760405162461bcd60e51b815260206004820152601f60248201527f5265656e7472616e637947756172643a207265656e7472616e742063616c6c006044820152606401610c60565b6002600b55600061211f60085490565b905033321461212d57600080fd5b601854610100900460ff166121775760405162461bcd60e51b815260206004820152601060248201526f14d85b19481b9bdd08195b98589b195960821b6044820152606401610c60565b3460155484612186919061428a565b11156121c65760405162461bcd60e51b815260206004820152600f60248201526e4d6f72652045544820706c6561736560881b6044820152606401610c60565b601c54601b546011546121d99190614273565b6121e39190614273565b6121ed8285614240565b11156122545760405162461bcd60e51b815260206004820152603060248201527f506c6561736520747279206d696e74696e672077697468206c6573732c206e6f60448201526f7420656e6f75676820737570706c792160801b6064820152608401610c60565b60185460ff1615156001141561237c57600f546040516bffffffffffffffffffffffff193360601b16602082015261228f9190603401611ec9565b6122db5760405162461bcd60e51b815260206004820152601c60248201527f596f7520617265206e6f74206f6e207468652077686974656c697374000000006044820152606401610c60565b601754336000908152601e60205260409020546122f89085614240565b11156123775760405162461bcd60e51b815260206004820152604260248201527f4578636565646564206d6178206d696e7420706572206164647265737320666f60448201527f722077686974656c6973742c20747279206d696e74696e672077697468206c65606482015261737360f01b608482015260a401610c60565b6123d8565b6016548311156123d85760405162461bcd60e51b815260206004820152602160248201527f4578636565646564206d6178206d696e7420706572207472616e73616374696f6044820152603760f91b6064820152608401610c60565b60005b83811015612454576123f133611d438385614240565b336000908152601f6020526040812080549161240c83614258565b909155505060185460ff1615156001141561244257336000908152601e6020526040812080549161243c83614258565b91905055505b8061244c81614258565b9150506123db565b50506001600b555050565b600a546001600160a01b031633146124895760405162461bcd60e51b8152600401610c609061413e565b8060125414610d4b576019548110156124e45760405162461bcd60e51b815260206004820152601f60248201527f56616c7565206c6f776572207468656e2072657365727665206d696e746564006044820152606401610c60565b601255565b336000908152600e6020526040902054829060ff168061252757506000818152600d602052604090205443600160401b9091046001600160401b0316105b6125435760405162461bcd60e51b8152600401610c6090614107565b61254f85858585613249565b5050505050565b6000818152600260205260409020546060906001600160a01b03166125d55760405162461bcd60e51b815260206004820152602f60248201527f4552433732314d657461646174613a2055524920717565727920666f72206e6f60448201526e3732bc34b9ba32b73a103a37b5b2b760891b6064820152608401610c60565b60006125df61327a565b905060008151116125ff5760405180602001604052806000815250610c72565b8061260984613289565b60405160200161261a9291906142a9565b6040516020818303038152906040529392505050565b336000908152600e602052604081205460ff1661265f5760405162461bcd60e51b8152600401610c60906141ee565b506001600160a01b03166000908152600c6020526040902054600160401b90046001600160401b031690565b336000908152600e602052604090205460ff166126ba5760405162461bcd60e51b8152600401610c60906141ee565b6040805180820182526001600160401b03428181168352438281166020808601918252326000908152600c9091529586209451855491518516600160401b026001600160801b03199092169416939093179290921790925590915b8351811015610efe576040518060400160405280846001600160401b03168152602001836001600160401b0316815250600d600086848151811061275b5761275b614214565b6020908102919091018101518252818101929092526040016000208251815493909201516001600160401b03908116600160401b026001600160801b0319909416921691909117919091179055806127b281614258565b915050612715565b336000908152600e602052604081205460ff16806127f75750326000908152600c602052604090205443600160401b9091046001600160401b0316105b6128135760405162461bcd60e51b8152600401610c6090614107565b6001600160a01b0380841660009081526005602090815260408083209386168352929052205460ff16611026565b336000908152600e602052604081205460ff166128705760405162461bcd60e51b8152600401610c60906141ee565b506000908152600d6020526040902054600160401b90046001600160401b031690565b600a546001600160a01b031633146128bd5760405162461bcd60e51b8152600401610c609061413e565b6001600160a01b0381166129225760405162461bcd60e51b815260206004820152602660248201527f4f776e61626c653a206e6577206f776e657220697320746865207a65726f206160448201526564647265737360d01b6064820152608401610c60565b610d4b816131d6565b600a546001600160a01b031633146129555760405162461bcd60e51b8152600401610c609061413e565b601555565b60006001600160e01b031982166380ac58cd60e01b148061298b57506001600160e01b03198216635b5e139f60e01b145b80610b6e57506301ffc9a760e01b6001600160e01b0319831614610b6e565b6000818152600260205260408120546001600160a01b0316612a235760405162461bcd60e51b815260206004820152602c60248201527f4552433732313a20617070726f76656420717565727920666f72206e6f6e657860448201526b34b9ba32b73a103a37b5b2b760a11b6064820152608401610c60565b506000908152600460205260409020546001600160a01b031690565b6000612a4a826130be565b9050806001600160a01b0316836001600160a01b03161415612ab85760405162461bcd60e51b815260206004820152602160248201527f4552433732313a20617070726f76616c20746f2063757272656e74206f776e656044820152603960f91b6064820152608401610c60565b336001600160a01b0382161480612ad45750612ad481336127ba565b612b465760405162461bcd60e51b815260206004820152603860248201527f4552433732313a20617070726f76652063616c6c6572206973206e6f74206f7760448201527f6e6572206e6f7220617070726f76656420666f7220616c6c00000000000000006064820152608401610c60565b610cdf8383613386565b600a54600160a01b900460ff1615612b7a5760405162461bcd60e51b8152600401610c60906141c4565b600a805460ff60a01b1916600160a01b1790557f62e78cea01bee320cd4e420270b5ea74000d11b0c9f74754ebdbfc544b05a258612bb53390565b6040516001600160a01b03909116815260200161109b565b600a54600160a01b900460ff16612c1d5760405162461bcd60e51b815260206004820152601460248201527314185d5cd8589b194e881b9bdd081c185d5cd95960621b6044820152606401610c60565b600a805460ff60a01b191690557f5db9ee0a495bf2e6ff9c91a7834c1ba4fdd244a5e8aa4e537bd38aeae4b073aa33612bb5565b6000818152600260205260408120546001600160a01b0316612cca5760405162461bcd60e51b815260206004820152602c60248201527f4552433732313a206f70657261746f7220717565727920666f72206e6f6e657860448201526b34b9ba32b73a103a37b5b2b760a11b6064820152608401610c60565b6000612cd5836130be565b9050806001600160a01b0316846001600160a01b03161480612d105750836001600160a01b0316612d0584610c06565b6001600160a01b0316145b80612d205750612d2081856127ba565b949350505050565b826001600160a01b0316612d3b826130be565b6001600160a01b031614612da35760405162461bcd60e51b815260206004820152602960248201527f4552433732313a207472616e73666572206f6620746f6b656e2074686174206960448201526839903737ba1037bbb760b91b6064820152608401610c60565b6001600160a01b038216612e055760405162461bcd60e51b8152602060048201526024808201527f4552433732313a207472616e7366657220746f20746865207a65726f206164646044820152637265737360e01b6064820152608401610c60565b612e108383836133f4565b612e1b600082613386565b6001600160a01b0383166000908152600360205260408120805460019290612e44908490614273565b90915550506001600160a01b0382166000908152600360205260408120805460019290612e72908490614240565b909155505060008181526002602052604080822080546001600160a01b0319166001600160a01b0386811691821790925591518493918716917fddf252ad1be2c89b69c2b068fc378daa952ba7f163c4a11628f55a4df523b3ef91a4505050565b6000612ede8361314f565b8210612f405760405162461bcd60e51b815260206004820152602b60248201527f455243373231456e756d657261626c653a206f776e657220696e646578206f7560448201526a74206f6620626f756e647360a81b6064820152608401610c60565b506001600160a01b03919091166000908152600660209081526040808320938352929052205490565b610cdf838383604051806020016040528060008152506124e9565b6000612f8f826130be565b9050612f9d816000846133f4565b612fa8600083613386565b6001600160a01b0381166000908152600360205260408120805460019290612fd1908490614273565b909155505060008281526002602052604080822080546001600160a01b0319169055518391906001600160a01b038416907fddf252ad1be2c89b69c2b068fc378daa952ba7f163c4a11628f55a4df523b3ef908390a45050565b600061303660085490565b82106130995760405162461bcd60e51b815260206004820152602c60248201527f455243373231456e756d657261626c653a20676c6f62616c20696e646578206f60448201526b7574206f6620626f756e647360a01b6064820152608401610c60565b600882815481106130ac576130ac614214565b90600052602060002001549050919050565b6000818152600260205260408120546001600160a01b031680610b6e5760405162461bcd60e51b815260206004820152602960248201527f4552433732313a206f776e657220717565727920666f72206e6f6e657869737460448201526832b73a103a37b5b2b760b91b6064820152608401610c60565b61129b8282604051806020016040528060008152506134ac565b60006001600160a01b0382166131ba5760405162461bcd60e51b815260206004820152602a60248201527f4552433732313a2062616c616e636520717565727920666f7220746865207a65604482015269726f206164647265737360b01b6064820152608401610c60565b506001600160a01b031660009081526003602052604090205490565b600a80546001600160a01b038381166001600160a01b0319831681179093556040519116919082907f8be0079c531659141344cd1fd0a4f28419497f9722a3daafe3b4186f6b6457e090600090a35050565b60008261323585846134df565b14949350505050565b61129b338383613583565b61325233610ed1565b61326e5760405162461bcd60e51b8152600401610c6090614173565b610efe84848484613652565b606060148054610b83906140d2565b6060816132ad5750506040805180820190915260018152600360fc1b602082015290565b8160005b81156132d757806132c181614258565b91506132d09050600a836142ee565b91506132b1565b6000816001600160401b038111156132f1576132f1613c83565b6040519080825280601f01601f19166020018201604052801561331b576020820181803683370190505b5090505b8415612d2057613330600183614273565b915061333d600a86614302565b613348906030614240565b60f81b81838151811061335d5761335d614214565b60200101906001600160f81b031916908160001a90535061337f600a866142ee565b945061331f565b600081815260046020526040902080546001600160a01b0319166001600160a01b03841690811790915581906133bb826130be565b6001600160a01b03167f8c5be1e5ebec7d5bd14f71427d1e84f3dd0314c0f7b2291e5b200ac8c7c3b92560405160405180910390a45050565b6001600160a01b03831661344f5761344a81600880546000838152600960205260408120829055600182018355919091527ff3f7a9fe364faab93b216da50a3214154f22a0a2b415b23a84c8169e8b636ee30155565b613472565b816001600160a01b0316836001600160a01b031614613472576134728382613685565b6001600160a01b03821661348957610cdf81613722565b826001600160a01b0316826001600160a01b031614610cdf57610cdf82826137d1565b6134b68383613815565b6134c36000848484613963565b610cdf5760405162461bcd60e51b8152600401610c6090614316565b600081815b8451811015611c8c57600085828151811061350157613501614214565b60200260200101519050808311613543576040805160208101859052908101829052606001604051602081830303815290604052805190602001209250613570565b60408051602081018390529081018490526060016040516020818303038152906040528051906020012092505b508061357b81614258565b9150506134e4565b816001600160a01b0316836001600160a01b031614156135e55760405162461bcd60e51b815260206004820152601960248201527f4552433732313a20617070726f766520746f2063616c6c6572000000000000006044820152606401610c60565b6001600160a01b03838116600081815260056020908152604080832094871680845294825291829020805460ff191686151590811790915591519182527f17307eab39ab6107e8899845ad3d59bd9653f200f220920489ca2b5937696c31910160405180910390a3505050565b61365d848484612d28565b61366984848484613963565b610efe5760405162461bcd60e51b8152600401610c6090614316565b600060016136928461314f565b61369c9190614273565b6000838152600760205260409020549091508082146136ef576001600160a01b03841660009081526006602090815260408083208584528252808320548484528184208190558352600790915290208190555b5060009182526007602090815260408084208490556001600160a01b039094168352600681528383209183525290812055565b60085460009061373490600190614273565b6000838152600960205260408120546008805493945090928490811061375c5761375c614214565b90600052602060002001549050806008838154811061377d5761377d614214565b60009182526020808320909101929092558281526009909152604080822084905585825281205560088054806137b5576137b5614368565b6001900381819060005260206000200160009055905550505050565b60006137dc8361314f565b6001600160a01b039093166000908152600660209081526040808320868452825280832085905593825260079052919091209190915550565b6001600160a01b03821661386b5760405162461bcd60e51b815260206004820181905260248201527f4552433732313a206d696e7420746f20746865207a65726f20616464726573736044820152606401610c60565b6000818152600260205260409020546001600160a01b0316156138d05760405162461bcd60e51b815260206004820152601c60248201527f4552433732313a20746f6b656e20616c7265616479206d696e746564000000006044820152606401610c60565b6138dc600083836133f4565b6001600160a01b0382166000908152600360205260408120805460019290613905908490614240565b909155505060008181526002602052604080822080546001600160a01b0319166001600160a01b03861690811790915590518392907fddf252ad1be2c89b69c2b068fc378daa952ba7f163c4a11628f55a4df523b3ef908290a45050565b60006001600160a01b0384163b15613a6557604051630a85bd0160e11b81526001600160a01b0385169063150b7a02906139a790339089908890889060040161437e565b602060405180830381600087803b1580156139c157600080fd5b505af19250505080156139f1575060408051601f3d908101601f191682019092526139ee918101906143bb565b60015b613a4b573d808015613a1f576040519150601f19603f3d011682016040523d82523d6000602084013e613a24565b606091505b508051613a435760405162461bcd60e51b8152600401610c6090614316565b805181602001fd5b6001600160e01b031916630a85bd0160e11b149050612d20565b506001949350505050565b828054613a7c906140d2565b90600052602060002090601f016020900481019282613a9e5760008555613ae4565b82601f10613ab757805160ff1916838001178555613ae4565b82800160010185558215613ae4579182015b82811115613ae4578251825591602001919060010190613ac9565b50613af0929150613af4565b5090565b5b80821115613af05760008155600101613af5565b6001600160e01b031981168114610d4b57600080fd5b600060208284031215613b3157600080fd5b813561102681613b09565b60005b83811015613b57578181015183820152602001613b3f565b83811115610efe5750506000910152565b60008151808452613b80816020860160208601613b3c565b601f01601f19169290920160200192915050565b6020815260006110266020830184613b68565b600060208284031215613bb957600080fd5b5035919050565b80356001600160a01b0381168114611a3457600080fd5b60008060408385031215613bea57600080fd5b613bf383613bc0565b946020939093013593505050565b80358015158114611a3457600080fd5b600060208284031215613c2357600080fd5b61102682613c01565b600060208284031215613c3e57600080fd5b61102682613bc0565b600080600060608486031215613c5c57600080fd5b613c6584613bc0565b9250613c7360208501613bc0565b9150604084013590509250925092565b634e487b7160e01b600052604160045260246000fd5b604051601f8201601f191681016001600160401b0381118282101715613cc157613cc1613c83565b604052919050565b60006001600160401b03831115613ce257613ce2613c83565b613cf5601f8401601f1916602001613c99565b9050828152838383011115613d0957600080fd5b828260208301376000602084830101529392505050565b600060208284031215613d3257600080fd5b81356001600160401b03811115613d4857600080fd5b8201601f81018413613d5957600080fd5b612d2084823560208401613cc9565b60008083601f840112613d7a57600080fd5b5081356001600160401b03811115613d9157600080fd5b6020830191508360208260051b8501011115613dac57600080fd5b9250929050565b60008060008060408587031215613dc957600080fd5b84356001600160401b0380821115613de057600080fd5b613dec88838901613d68565b90965094506020870135915080821115613e0557600080fd5b50613e1287828801613d68565b95989497509550505050565b6020808252825182820181905260009190848201906040850190845b81811015613e5657835183529284019291840191600101613e3a565b50909695505050505050565b60006001600160401b03821115613e7b57613e7b613c83565b5060051b60200190565b600082601f830112613e9657600080fd5b81356020613eab613ea683613e62565b613c99565b82815260059290921b84018101918181019086841115613eca57600080fd5b8286015b84811015613ee55780358352918301918301613ece565b509695505050505050565b600060208284031215613f0257600080fd5b81356001600160401b03811115613f1857600080fd5b612d2084828501613e85565b60008060408385031215613f3757600080fd5b613f4083613bc0565b9150613f4e60208401613c01565b90509250929050565b60008060408385031215613f6a57600080fd5b8235915060208301356001600160401b03811115613f8757600080fd5b613f9385828601613e85565b9150509250929050565b60008060008060808587031215613fb357600080fd5b613fbc85613bc0565b9350613fca60208601613bc0565b92506040850135915060608501356001600160401b03811115613fec57600080fd5b8501601f81018713613ffd57600080fd5b61400c87823560208401613cc9565b91505092959194509250565b6000602080838503121561402b57600080fd5b82356001600160401b0381111561404157600080fd5b8301601f8101851361405257600080fd5b8035614060613ea682613e62565b81815260059190911b8201830190838101908783111561407f57600080fd5b928401925b8284101561409d57833582529284019290840190614084565b979650505050505050565b600080604083850312156140bb57600080fd5b6140c483613bc0565b9150613f4e60208401613bc0565b600181811c908216806140e657607f821691505b60208210811415610c7557634e487b7160e01b600052602260045260246000fd5b6020808252601c908201527f6c6173742077726974652073616d6520626c6f636b206e756d62657200000000604082015260600190565b6020808252818101527f4f776e61626c653a2063616c6c6572206973206e6f7420746865206f776e6572604082015260600190565b60208082526031908201527f4552433732313a207472616e736665722063616c6c6572206973206e6f74206f6040820152701ddb995c881b9bdc88185c1c1c9bdd9959607a1b606082015260800190565b60208082526010908201526f14185d5cd8589b194e881c185d5cd95960821b604082015260600190565b6020808252600c908201526b41646d696e73206f6e6c792160a01b604082015260600190565b634e487b7160e01b600052603260045260246000fd5b634e487b7160e01b600052601160045260246000fd5b600082198211156142535761425361422a565b500190565b600060001982141561426c5761426c61422a565b5060010190565b6000828210156142855761428561422a565b500390565b60008160001904831182151516156142a4576142a461422a565b500290565b600083516142bb818460208801613b3c565b8351908301906142cf818360208801613b3c565b01949350505050565b634e487b7160e01b600052601260045260246000fd5b6000826142fd576142fd6142d8565b500490565b600082614311576143116142d8565b500690565b60208082526032908201527f4552433732313a207472616e7366657220746f206e6f6e20455243373231526560408201527131b2b4bb32b91034b6b83632b6b2b73a32b960711b606082015260800190565b634e487b7160e01b600052603160045260246000fd5b6001600160a01b03858116825284166020820152604081018390526080606082018190526000906143b190830184613b68565b9695505050505050565b6000602082840312156143cd57600080fd5b815161102681613b0956fea2646970667358221220c401d5ef982de629e238c86fd2096845bb78d435c05f99b5924cf924fafc3cc564736f6c634300080900334f776e61626c653a2063616c6c6572206973206e6f7420746865206f776e6572",
  "linkReferences": {},
  "deployedLinkReferences": {}
}